:0A0A4C003031323334353637383993
:10094B00120A10E4F514F515E4F516F517E4F5188D
:10095B00F5197F817E00120A56AF15AE141209C924
:10096B007F3A7E00120A5EAF17AE161209C97F3AA4
:10097B007E00120A5EAF19AE181209C97FE87EFD20
:10098B00120A340519E51970020518C3943CE518D1
:10099B006480948040BC0517E51770020516C3945C
:1009AB003CE5166480948040A40515E5157002059E
:0E09BB0014C39418E51464809480408C8085E9
:080A2C008F90D2B37F2C7E01F4
:0C0A3400EF4E6007EF1F70F81E80F522E7
:080A5600C2B5120A2CC2B32242
:080A5E00D2B5120A2CC2B3222A
:100A10007F017E00120A567F0C7E00120A567F3C30
:0C0A20007E00120A567F387E00020A5643
:0409C9008E088F09FC
:1009CD00780A7C007D007BFF7A0A794C7E007F0AD5
:1009DD001208D0AE08AF097C007D0A1208F6740A21
:1009ED002FF8E6FF3395E0FE120A5EAE08AF097CE4
:1009FD00007D0A1208F6740A2DF8E6FF3395E0FE25
:030A0D00020A5E7C
:03000000020A40B1
:0C0A4000787FE4F6D8FD75811902094B9F
:10080000E709F608DFFA8046E709F208DFFA803EDA
:1008100088828C83E709F0A3DFFA8032E309F608C7
:10082000DFFA8078E309F208DFFA807088828C832F
:10083000E309F0A3DFFA806489828A83E0A3F608E3
:10084000DFFA805889828A83E0A3F208DFFA804CBD
:1008500080D280FA80C680D4806980F28033801094
:1008600080A680EA809A80A880DA80E280CA8033FD
:1008700089828A83ECFAE493A3C8C582C8CCC58375
:10088000CCF0A3C8C582C8CCC583CCDFE9DEE78045
:100890000D89828A83E493A3F608DFF9ECFAA9F0C4
:1008A000EDFB2289828A83ECFAE0A3C8C582C8CC1A
:1008B000C583CCF0A3C8C582C8CCC583CCDFEADE33
:1008C000E880DB89828A83E493A3F208DFF980CC95
:1008D00088F0EF60010E4E60C388F0ED2402B4048E
:1008E0000050B9F582EB2402B4040050AF23234535
:0608F00082239008507302
:1008F600BC000BBE0029EF8DF084FFADF022E4CCE6
:10090600F875F008EF2FFFEE33FEEC33FCEE9DECAE
:10091600984005FCEE9DFE0FD5F0E9E4CEFD22EDF4
:10092600F8F5F0EE8420D21CFEADF075F008EF2F3E
:10093600FFED33FD4007985006D5F0F222C398FD2F
:050946000FD5F0EA22CC
:00000001FF
