:0A0AD8003031323334353637383907
:040AF20002170000E7
:1009F000120AA87F807E00120AE27F617E00120A3E
:100A0000EA30B7250518E518700205177F817E00CA
:100A1000120AE2AF18AE17120A387580FF30B70914
:100A20007FE87EFD120ACC80F420B7D5E4F5807F04
:080A3000647E19120ACC80C992
:080AC4008F90D2B37F2C7E015C
:0C0ACC00EF4E6007EF1F70F81E80F5224F
:080AE200C2B5120AC4C2B3221E
:080AEA00D2B5120AC4C2B32206
:100AA8007F017E00120AE27F0C7E00120AE27F3C80
:0C0AB8007E00120AE27F387E00020AE293
:100A7F008B148A158916AB14AA15A9161208F660DD
:100A8F00170516E5167002051514F91208F6FF334F
:090A9F0095E0FE120AEA80DE2255
:040A38008E088F098C
:100A3C00780A7C007D007BFF7A0A79D87E007F0AD9
:100A4C001208D0AE08AF097C007D0A12090F740A97
:100A5C002FF8E6FF3395E0FE120AEAAE08AF097CE8
:100A6C00007D0A12090F740A2DF8E6FF3395E0FE9B
:030A7C00020AEA81
:030000000209648E
:0C096400787FE4F6D8FD7581180209AB1D
:10080000E709F608DFFA8046E709F208DFFA803EDA
:1008100088828C83E709F0A3DFFA8032E309F608C7
:10082000DFFA8078E309F208DFFA807088828C832F
:10083000E309F0A3DFFA806489828A83E0A3F608E3
:10084000DFFA805889828A83E0A3F208DFFA804CBD
:1008500080D280FA80C680D4806980F28033801094
:1008600080A680EA809A80A880DA80E280CA8033FD
:1008700089828A83ECFAE493A3C8C582C8CCC58375
:10088000CCF0A3C8C582C8CCC583CCDFE9DEE78045
:100890000D89828A83E493A3F608DFF9ECFAA9F0C4
:1008A000EDFB2289828A83ECFAE0A3C8C582C8CC1A
:1008B000C583CCF0A3C8C582C8CCC583CCDFEADE33
:1008C000E880DB89828A83E493A3F208DFF980CC95
:1008D00088F0EF60010E4E60C388F0ED2402B4048E
:1008E0000050B9F582EB2402B4040050AF23234535
:0608F00082239008507302
:1008F600BB010689828A83E0225002E722BBFE0200
:09090600E32289828A83E4932232
:10090F00BC000BBE0029EF8DF084FFADF022E4CCCC
:10091F00F875F008EF2FFFEE33FEEC33FCEE9DEC95
:10092F00984005FCEE9DFE0FD5F0E9E4CEFD22EDDB
:10093F00F8F5F0EE8420D21CFEADF075F008EF2F25
:10094F00FFED33FD4007985006D5F0F222C398FD16
:05095F000FD5F0EA22B3
:100970000209F0E493A3F8E493A34003F68001F2A4
:1009800008DFF48029E493A3F85407240CC8C33388
:10099000C4540F4420C8834004F456800146F6DF57
:1009A000E4800B0102040810204080900AF2E47EEB
:1009B000019360BCA3FF543F30E509541FFEE4934C
:1009C000A360010ECF54C025E060A840B8E493A313
:1009D000FAE493A3F8E493A3C8C582C8CAC583CA3E
:1009E000F0A3C8C582C8CAC583CADFE9DEE780BEF6
:010AF60000FF
:00000001FF
