:10000000C2B6C2B778FF7580C01203001203001297
:1000100003007580F91203001203001203007580BB
:10002000A41203001203001203007580B012030033
:1000300012030012030075809912030012030012CC
:1000400003007580921203001203001203007580F2
:10005000821203001203001203007580F8120300DD
:100060001203001203007580001203001203001235
:100070000300758090120300120300120300D8865B
:0903000079FF7AFFDAFED9FA2236
:00000001FF
