:0C091C000A0830313233343536373839B0
:10088C001208DDE4F512F513E4F514F5157F877EF7
:10089C00001209297408251312090D740825151264
:1008AC00090D7FE87EFD1209010515E5157002059D
:1008BC0014C3940AE5146480948040D10513E513A5
:1008CC0070020512C3940AE5126480948040B980CA
:0108DC00B269
:0808F9008F90D2B37F2C7E0129
:0C090100EF4E6007EF1F70F81E80F5221B
:08092900C2B51208F9C2B322A5
:07090D00F8E6FF3395E0FE60
:08091400D2B51208F9C2B322AA
:1008DD007F017E001209297F0C7E001209297F3CC1
:0C08ED007E001209297F387E00020929D4
:03000000020800F3
:0C080000787FE4F6D8FD758115020847EA
:10080C0002088CE493A3F8E493A34003F68001F26E
:10081C0008DFF48029E493A3F85407240CC8C333ED
:10082C00C4540F4420C8834004F456800146F6DFBC
:10083C00E4800B010204081020408090091CE47E27
:10084C00019360BCA3FF543F30E509541FFEE493B1
:10085C00A360010ECF54C025E060A840B8E493A378
:10086C00FAE493A3F8E493A3C8C582C8CAC583CAA3
:10087C00F0A3C8C582C8CAC583CADFE9DEE780BE5B
:0109280000CE
:00000001FF
