:0A0A68003031323334353637383977
:1009B50075A0FF120A1DD2877F807E00120A727F02
:1009C500417E00120A54D286C2877F647E00120AD5
:1009D50041D2872086FDAFA07508008F097FC07EB4
:1009E50000120A727F0A7E00120A41AF09AE081290
:0409F500096480D23F
:080A39008F90D2B37F2C7E01E7
:0C0A4100EF4E6007EF1F70F81E80F522DA
:080A7200C2B5120A39C2B32219
:070A4D00F8E6FF3395E0FE1F
:080A5400D2B5120A39C2B32227
:100A1D007F017E00120A727F0C7E00120A727F3CEB
:0C0A2D007E00120A727F387E00020A72FE
:1009F9008B168A178918AB16AA17A9181208F66058
:100A0900120518E5187002051714F91208F6120AEA
:040A19004F80E32205
:040964008E0A8F0B5D
:10096800780C7C007D007BFF7A0A79687E007F0A1C
:100978001208D0AE0AAF0B7C007D6412090F740C0C
:100988002F120A4DAE0AAF0B7C007D0A12090F74B4
:100998000C2D120A4DAE0AAF0B7C007D0A12090F0E
:0D09A800740C2DF8E6FF3395E0FE020A54B2
:03000000020A5C95
:0C0A5C00787FE4F6D8FD7581180209B51A
:10080000E709F608DFFA8046E709F208DFFA803EDA
:1008100088828C83E709F0A3DFFA8032E309F608C7
:10082000DFFA8078E309F208DFFA807088828C832F
:10083000E309F0A3DFFA806489828A83E0A3F608E3
:10084000DFFA805889828A83E0A3F208DFFA804CBD
:1008500080D280FA80C680D4806980F28033801094
:1008600080A680EA809A80A880DA80E280CA8033FD
:1008700089828A83ECFAE493A3C8C582C8CCC58375
:10088000CCF0A3C8C582C8CCC583CCDFE9DEE78045
:100890000D89828A83E493A3F608DFF9ECFAA9F0C4
:1008A000EDFB2289828A83ECFAE0A3C8C582C8CC1A
:1008B000C583CCF0A3C8C582C8CCC583CCDFEADE33
:1008C000E880DB89828A83E493A3F208DFF980CC95
:1008D00088F0EF60010E4E60C388F0ED2402B4048E
:1008E0000050B9F582EB2402B4040050AF23234535
:0608F00082239008507302
:1008F600BB010689828A83E0225002E722BBFE0200
:09090600E32289828A83E4932232
:10090F00BC000BBE0029EF8DF084FFADF022E4CCCC
:10091F00F875F008EF2FFFEE33FEEC33FCEE9DEC95
:10092F00984005FCEE9DFE0FD5F0E9E4CEFD22EDDB
:10093F00F8F5F0EE8420D21CFEADF075F008EF2F25
:10094F00FFED33FD4007985006D5F0F222C398FD16
:05095F000FD5F0EA22B3
:00000001FF
