:1000000090020074007438120300120900740C127C
:100010000300120900740112030012090074801217
:100020000300120900744D120600120900744F12E9
:1000300006001209007444120600120900744912E5
:10004000060012090074C5120300120900E493129D
:0C005000060012090060A9A380F380FEE6
:0C030000F590C2B5D2B3120900C2B322BE
:0C060000F590D2B5D2B3120900C2B322AB
:0909000078FF79FFD9FED8FA2234
:050200004D4F444900D0
:00000001FF
