:10080000E4F5B07580FF75800FAF80EF640F60F680
:100810007580EFAF807508008F09E50964EF450822
:10082000602CE50964E74508700375B001E50964CB
:10083000EB4508700375B002E50964ED45087003E7
:1008400075B003E50964EE4508700375B004758062
:10085000DFAF807508008F09E50964DF4508602C6B
:10086000E50964D74508700375B005E50964DB4503
:1008700008700375B006E50964DD4508700375B0BE
:1008800007E50964DE4508700375B0087580BFAFE1
:10089000807508008F09E50964BF4508602CE509EB
:1008A00064B74508700375B009E50964BB45087075
:1008B0000375B00AE50964BD4508700375B00BE522
:1008C0000964BE4508700375B00C75807FAF8075F4
:1008D00008008F09E509647F45087003020806E5F2
:1008E0000964774508700375B00DE509647B450818
:1008F000700375B00EE509647D4508700375B00F8F
:10090000E509647E4508600302080675B010020818
:0109100006E0
:03000000020911E1
:0C091100787FE4F6D8FD7581090208002B
:00000001FF
