:0C090E000A08C0F9A4B0999282F8809801
:10088C00D2B7D2B6D2B520B5FDE4F512F513C3E557
:10089C0013940AE5126480948050EBE4F514F5157A
:1008AC00E4F516F517C2B7D2B6740825131208FA78
:1008BC00D2B7C2B6740825151208FA20B5E7051789
:1008CC00E51770020516C3940AE5166480948040FF
:1008DC00D40515E51570020514C3940AE51464805B
:0E08EC00948040BC0513E51370A4051280A093
:0808FA00F8E6F5807FE87E03BB
:0C090200EF4E6007EF1F70F81E80F5221A
:03000000020800F3
:0C080000787FE4F6D8FD758117020847E8
:10080C0002088CE493A3F8E493A34003F68001F26E
:10081C0008DFF48029E493A3F85407240CC8C333ED
:10082C00C4540F4420C8834004F456800146F6DFBC
:10083C00E4800B010204081020408090090EE47E35
:10084C00019360BCA3FF543F30E509541FFEE493B1
:10085C00A360010ECF54C025E060A840B8E493A378
:10086C00FAE493A3F8E493A3C8C582C8CAC583CAA3
:10087C00F0A3C8C582C8CAC583CADFE9DEE780BE5B
:01091A0000DC
:00000001FF
