:0908C6004E554D495445434800CC
:10080000120882750B00750CC01208AEAF0CAE0B4F
:100810001208B27F647E191208A21208AE7BFF7A1A
:100820000879C61208407F647E191208A2050CE5FB
:100830000C7002050BD394CFE50B940040CB80C322
:08089A008F90D2B37F2C7E0188
:0C08A200EF4E6007EF1F70F81E80F5227B
:0408AE007F017E0048
:0808B200C2B512089AC2B3227C
:0808CF00D2B512089AC2B3224F
:100882001208AE7F0C7E001208B27F3C7E00120876
:08089200B27F387E000208B2BB
:100840008B088A09890AAB08AA09A90A12086960F3
:1008500017050AE50A7002050914F9120869FF3341
:0908600095E0FE1208CF80DE22B3
:030000000208BA39
:0C08BA00787FE4F6D8FD75810C02080080
:10086900BB010689828A83E0225002E722BBFE028D
:09087900E32289828A83E49322C0
:00000001FF
