:0E0BDB00081400010002000300040208FFFFDE
:10080000E4F5B07580FF120B727F017E00120BCBF6
:1008100075800FAF80EF640F60F67580EFAF807565
:1008200012008F13E51364EF451270030208B2E55E
:100830001364E7451270180509E5097002050825DB
:10084000E0240AF87600087601120BA7120BBBE52C
:100850001364EB451270180509E5097002050825B7
:10086000E0240AF87600087602120BA7120BBBE50B
:100870001364ED4512701B75B0030509E50970029C
:10088000050825E0240AF87600087603120BA71263
:100890000BBBE51364EE451270180509E5097002FB
:1008A000050825E0240AF87600087604120BA71242
:1008B0000BBB7580DFAF807512008F13E51364DF0B
:1008C00045127003020947E51364D74512701805F5
:1008D00009E5097002050825E0240AF87600087683
:1008E00005120BA7120BBBE51364DB45127018054C
:1008F00009E5097002050825E0240AF87600087663
:1009000006120BA7120BBBE51364DD451270180528
:1009100009E5097002050825E0240AF87600087642
:1009200007120BA7120BBBE51364DE451270180506
:1009300009E5097002050825E0240AF87600087622
:1009400008120BA7120BBB7580BFAF807512008F0A
:1009500013E51364BF451270030209DCE51364B7A5
:10096000451270180509E5097002050825E0240AFA
:10097000F87600087609120BA7120BBBE51364BBCF
:10098000451270180509E5097002050825E0240ADA
:10099000F8760008760A120BA7120BBBE51364BDAC
:1009A000451270180509E5097002050825E0240ABA
:1009B000F8760008760B120BA7120BBBE51364BE8A
:1009C000451270180509E5097002050825E0240A9A
:1009D000F8760008760C120BA7120BBB75807FAF60
:1009E000807512008F13E513647F45127003020AAD
:1009F00071E5136477451270180509E50970020561
:100A00000825E0240AF8760008760D120BA7120BD1
:100A1000BBE513647B451270180509E509700205F2
:100A20000825E0240AF8760008760E120BA7120BB0
:100A3000BBE513647D451270180509E509700205D0
:100A40000825E0240AF8760008760F120BA7120B8F
:100A5000BBE513647E451270180509E509700205AF
:100A60000825E0240AF87600087610120BA7120B6E
:100A7000BBE515650B7004E514650A6003020810F8
:100A8000E517650D7004E516650C6003020810E5B6
:100A900019650F7004E518650E6003020810E51B68
:100AA00065117004E51A651060030208107FC3FE2B
:0D0AB000120BCB7F447E00120BAB0208102E
:040BBB007FE87EFD54
:0C0BBF00EF4E6007EF1F70F81E80F5225B
:100BCB00C2B58F90D2B37F2C7E01120BBFC2B32262
:040BA7007F2A7E0023
:100BAB00D2B58F90D2B37F2C7E01120BBFC2B32272
:100B72007F017E00120BCB7F0C7E00120BCB7F3CE1
:0C0B82007E00120BCB7F387E00020BCBF4
:100B49008B1C8A1D891EAB1CAA1DA91E120B8E6047
:100B590017051EE51E7002051D14F9120B8EFF33D1
:090B690095E0FE120BAB80DE22C8
:03000000020ABD34
:0C0ABD00787FE4F6D8FD75811E020B0462
:100B8E00BB010689828A83E0225002E722BBFE0265
:090B9E00E32289828A83E4932298
:100AC900020800E493A3F8E493A34003F68001F23B
:100AD90008DFF48029E493A3F85407240CC8C3332E
:100AE900C4540F4420C8834004F456800146F6DFFD
:100AF900E4800B0102040810204080900BDBE47EA7
:100B0900019360BCA3FF543F30E509541FFEE493F1
:100B1900A360010ECF54C025E060A840B8E493A3B8
:100B2900FAE493A3F8E493A3C8C582C8CAC583CAE3
:100B3900F0A3C8C582C8CAC583CADFE9DEE780BE9B
:010BE900000B
:00000001FF
