:100000007438120300120900740E12030012090062
:100010007401120300120900748512030012090012
:10002000744D120600120900744F120600120900E6
:1000300074441206001209007449120600120900E5
:1000400074C512030012090074521206001209004E
:10005000744F1206001209007442120600120900C1
:0A006000744F12060012090080FE22
:0C030000F590C2B5D2B3120900C2B322BE
:0C060000F590D2B5D2B3120900C2B322AB
:09090000780A79FFD9FED8FA2229
:00000001FF
