:1008A500414D004E554D49544543484E4943414CF1
:0108B5000042
:1008000012085C7F857E001208C27F497E001208B4
:10081000CA7F877E001208C27BFF7A0879A512087A
:10082000337FC27E001208C27BFF7A0879A81208C3
:030830003380D042
:080891008F90D2B37F2C7E0191
:0C089900EF4E6007EF1F70F81E80F52284
:0808C200C2B5120891C2B32275
:0808CA00D2B5120891C2B3225D
:10085C007F017E001208C27F0C7E001208C27F3C12
:0C086C007E001208C27F387E000208C225
:100833008B088A09890AAB08AA09A90A12087860F1
:1008430017050AE50A7002050914F9120878FF333F
:0908530095E0FE1208CA80DE22C5
:030000000208B63D
:0C08B600787FE4F6D8FD75810A02080086
:10087800BB010689828A83E0225002E722BBFE027E
:09088800E32289828A83E49322B1
:00000001FF
