:10080000E4F5B07580FF1209E17F017E00120A391C
:1008100075800FAF80EF640F60F67580EFAF807565
:100820000B008F0CE50C64EF450B6051E50C64E7A1
:10083000450B700A120A367F417E00120A41E50C10
:1008400064EB450B700A120A367F427E00120A41A1
:10085000E50C64ED450B701075B0037F01FE120AC4
:10086000397F437E00120A41E50C64EE450B700DA2
:100870007F01FE120A397F447E00120A417580DF33
:10088000AF80750B008F0CE50C64DF450B6054E501
:100890000C64D7450B700D7F01FE120A397F457E2F
:1008A00000120A41E50C64DB450B700D7F01FE125E
:1008B0000A397F467E00120A41E50C64DD450B7063
:1008C0000D7F01FE120A397F477E00120A41E50CB6
:1008D00064DE450B700D7F01FE120A397F487E00F1
:1008E000120A417580BFAF80750B008F0CE50C6458
:1008F000BF450B6054E50C64B7450B700D7F01FEDE
:10090000120A397F497E00120A41E50C64BB450B8F
:10091000700D7F01FE120A397F4A7E00120A41E5FE
:100920000C64BD450B700D7F01FE120A397F4B7EB2
:1009300000120A41E50C64BE450B700D7F01FE12EA
:100940000A397F4C7E00120A4175807FAF80750B9B
:10095000008F0CE50C647F450B7003020810E50C5A
:100960006477450B700D7F01FE120A397F4D7E00C2
:10097000120A41E50C647B450B700D7F01FE120AE3
:10098000397F4E7E00120A41E50C647D450B700DE7
:100990007F01FE120A397F4F7E00120A41E50C6486
:1009A0007E450B60030208107F01FE120A397F505A
:0809B0007E00120A410208104A
:080A16008F90D2B37F2C7E010A
:0C0A1E00EF4E6007EF1F70F81E80F522FD
:030A36007F01FE3F
:080A3900C2B5120A16C2B32275
:080A4100D2B5120A16C2B3225D
:1009E1007F017E00120A397F0C7E00120A397F3C9A
:0C09F1007E00120A397F387E00020A39AD
:1009B8008B088A09890AAB08AA09A90A1209FD60E5
:1009C80017050AE50A7002050914F91209FDFF3333
:0909D80095E0FE120A4180DE22C6
:03000000020A2AC7
:0C0A2A00787FE4F6D8FD75810C0208000E
:1009FD00BB010689828A83E0225002E722BBFE02F8
:090A0D00E32289828A83E493222A
:00000001FF
